:03000000020D737B
:0C0D7300787FE4F6D8FD758120020800AE
:100B4900566F7465696E67205374617274656400C9
:100B59005761697420666F722061207768696C65D6
:100B690000596F752043616E20566F7465204E6F72
:100B79007700596F7520566F74656420466F72004F
:100B8900506172747920300050617274792031009B
:100B99005061727479203200506172747920330087
:100BA9005061727479203400506172747920350073
:100BB900506172747920360050617274792037005F
:100BC90053656C656374204D6F6465005265737578
:100BD9006C7400506172747920302053636F7265B0
:100BE9006400506172747920312053636F726564B7
:100BF90000506172747920322053636F726564000A
:100C0900506172747920332053636F7265640050A8
:100C19006172747920342053636F72656400506186
:100C290072747920352053636F7265640050617264
:100C3900747920362053636F726564005061727451
:0B0C49007920372053636F7265640050
:040D0B008E1C8F1D8E
:100D0F007C007D0A120C81EF2430FF120D53AE1CB4
:100D1F00AF1D7C007D0A120C81ED2430FF020D53B4
:10080000E4F508F509F50AF50BF50CF50DF50EF50F
:100810000FF510F511F512F513F514F515F516F59C
:1008200017F518F519F51AF51B7F38120D637F0EB1
:10083000120D63309303020B487F01120D637F801A
:10084000120D637BFF7A0B7949120CDC7FB87E0BAB
:10085000120D337F01120D637F80120D637BFF7ACF
:100860000B7959120CDC7FD07E07120D337F0112F9
:100870000D63209406751A00751B01E51B64014584
:100880001A60030209D47F80120D637BFF7A0B7913
:100890006A120CDC20B0230509E509700205087F07
:1008A00001120D637F80120D63120CD67FC0120DF2
:1008B000637BFF7A0B79890209C220B123050BE51E
:1008C0000B7002050A7F01120D637F80120D631207
:1008D0000CD67FC0120D637BFF7A0B79910209C29F
:1008E00020B223050DE50D7002050C7F01120D638A
:1008F0007F80120D63120CD67FC0120D637BFF7ACE
:100900000B79990209C220B323050FE50F70020588
:100910000E7F01120D637F80120D63120CD67FC013
:10092000120D637BFF7A0B79A10209C220B4230563
:1009300011E511700205107F01120D637F80120D09
:1009400063120CD67FC0120D637BFF7A0B79A9026C
:1009500009C220B5220513E513700205127F0112AA
:100960000D637F80120D63120CD67FC0120D637B66
:10097000FF7A0B79B1804B20B6220515E515700280
:1009800005147F01120D637F80120D63120CD67F58
:10099000C0120D637BFF7A0B79B9802630B7030252
:1009A000087B0517E517700205167F01120D637F9E
:1009B00080120D63120CD67FC0120D637BFF7A0B81
:1009C00079C1120CDC7FB87E0B120D33E4F51AF5F9
:1009D0001B02087B3093030208537F01120D637FD3
:1009E00080120D637BFF7A0B79C9120CDC7FD07EFD
:1009F00007120D33309503020B047F01120D637F44
:100A000080120D637BFF7A0B79D5120CDC7FC0124C
:100A10000D637FD07E07120D337F80120D637BFF45
:100A20007A0B79DC120CDC7FC0120D63AF09AE08C3
:100A3000120D0B120D2F7F80120D637BFF7A0B7945
:100A4000EB120CDC7FC0120D63AF0BAE0A120D0B64
:100A5000120D2F7F80120D637BFF7A0B79FA120C37
:100A6000DC7FC0120D63AF0DAE0C120D0B120D2FFB
:100A70007F80120D637BFF7A0C7909120CDC7FC03A
:100A8000120D63AF0FAE0E120D0B120D2F7F8012E1
:100A90000D637BFF7A0C7918120CDC7FC0120D639A
:100AA000AF11AE10120D0B120D2F7F80120D637B54
:100AB000FF7A0C7927120CDC7FC0120D63AF13AEE6
:100AC00012120D0B120D2F7F80120D637BFF7A0C1B
:100AD0007936120CDC7FC0120D63AF15AE14120D07
:100AE0000B120D2F7F80120D637BFF7A0C7945125C
:100AF0000CDC7FC0120D63AF17AE16120D0B120D7A
:100B00002F0209DA20962E3096030209DAE4F5085E
:100B1000F509F50AF50BF50CF50DF50EF50FF510C9
:100B2000F511F512F513F514F515F516F517F51A77
:100B3000F51B0209DA3093030209DA7FB87E0B1243
:080B40000D3320930302082984
:010B4800228A
:060CD6007BFF7A0B797B25
:060CDC008B1C8A1D891E1D
:100CE200E4F51FF520F51FF520AB1CAA1DA91E85F2
:100CF2002082851F83120C54FF600D120D530520B4
:080D0200E52070E5051F80E10A
:010D0A0022C6
:100D53008FA0D290D2917F057E00120D33C29122D3
:100D63008FA0C290D2917F057E00120D33C29122D3
:040D2F007FE87E03D8
:100D3300E4FDFCC3ED9FEC9E5015E4FAFB0BBB00F6
:0F0D4300010AEB64734A70F50DBD00010C80E4EA
:010D5200227E
:100C5400BB010CE58229F582E5833AF583E0225055
:100C640006E92582F8E622BBFE06E92582F8E2229F
:0D0C7400E58229F582E5833AF583E49322B9
:100C8100BC000BBE0029EF8DF084FFADF022E4CC57
:100C9100F875F008EF2FFFEE33FEEC33FCEE9DEC20
:100CA100984005FCEE9DFE0FD5F0E9E4CEFD22ED66
:100CB100F8F5F0EE8420D21CFEADF075F008EF2FB0
:100CC100FFED33FD4007985006D5F0F222C398FDA1
:050CD1000FD5F0EA223E
:00000001FF
